{
  "contractName": "Messages",
  "abi": [
    {
      "constant": true,
      "inputs": [
        {
          "name": "",
          "type": "uint256"
        }
      ],
      "name": "messages",
      "outputs": [
        {
          "name": "sender",
          "type": "address"
        },
        {
          "name": "ipfsHash",
          "type": "bytes32"
        }
      ],
      "payable": false,
      "stateMutability": "view",
      "type": "function"
    },
    {
      "constant": false,
      "inputs": [
        {
          "name": "id",
          "type": "uint256"
        },
        {
          "name": "ipfsHash",
          "type": "bytes32"
        }
      ],
      "name": "updateMessage",
      "outputs": [],
      "payable": false,
      "stateMutability": "nonpayable",
      "type": "function"
    },
    {
      "constant": false,
      "inputs": [
        {
          "name": "ipfsHash",
          "type": "bytes32"
        }
      ],
      "name": "createMessage",
      "outputs": [],
      "payable": false,
      "stateMutability": "nonpayable",
      "type": "function"
    },
    {
      "constant": true,
      "inputs": [],
      "name": "messagesLength",
      "outputs": [
        {
          "name": "",
          "type": "uint256"
        }
      ],
      "payable": false,
      "stateMutability": "view",
      "type": "function"
    },
    {
      "inputs": [],
      "payable": false,
      "stateMutability": "nonpayable",
      "type": "constructor"
    },
    {
      "anonymous": false,
      "inputs": [
        {
          "indexed": true,
          "name": "id",
          "type": "uint256"
        },
        {
          "indexed": true,
          "name": "sender",
          "type": "address"
        },
        {
          "indexed": true,
          "name": "ipfsHash",
          "type": "bytes32"
        }
      ],
      "name": "MessageCreated",
      "type": "event"
    },
    {
      "anonymous": false,
      "inputs": [
        {
          "indexed": true,
          "name": "id",
          "type": "uint256"
        },
        {
          "indexed": true,
          "name": "sender",
          "type": "address"
        },
        {
          "indexed": true,
          "name": "ipfsHash",
          "type": "bytes32"
        }
      ],
      "name": "MessageUpdated",
      "type": "event"
    }
  ],
  "bytecode": "0x6060604052341561000f57600080fd5b61045d8061001e6000396000f300606060405260043610610062576000357c0100000000000000000000000000000000000000000000000000000000900463ffffffff1680630d80fefd14610067578063491fd263146100d957806375a73ed314610109578063e11dba5414610130575b600080fd5b341561007257600080fd5b6100886004808035906020019091905050610159565b604051808373ffffffffffffffffffffffffffffffffffffffff1673ffffffffffffffffffffffffffffffffffffffff16815260200182600019166000191681526020019250505060405180910390f35b34156100e457600080fd5b6101076004808035906020019091908035600019169060200190919050506101ac565b005b341561011457600080fd5b61012e6004808035600019169060200190919050506102af565b005b341561013b57600080fd5b6101436103a5565b6040518082815260200191505060405180910390f35b60008181548110151561016857fe5b90600052602060002090600202016000915090508060000160009054906101000a900473ffffffffffffffffffffffffffffffffffffffff16908060010154905082565b816000805490501115156101bf57600080fd5b3373ffffffffffffffffffffffffffffffffffffffff166000838154811015156101e557fe5b906000526020600020906002020160000160009054906101000a900473ffffffffffffffffffffffffffffffffffffffff1673ffffffffffffffffffffffffffffffffffffffff1614151561023957600080fd5b8060008381548110151561024957fe5b9060005260206000209060020201600101816000191690555080600019163373ffffffffffffffffffffffffffffffffffffffff16837fabe9248821ddaf4dca61083cf0ce0fbe633cb4badf679f3e63e7d841fbb437cd60405160405180910390a45050565b60008080548091906001016102c491906103b1565b506001600080549050039050816000828154811015156102e057fe5b906000526020600020906002020160010181600019169055503360008281548110151561030957fe5b906000526020600020906002020160000160006101000a81548173ffffffffffffffffffffffffffffffffffffffff021916908373ffffffffffffffffffffffffffffffffffffffff16021790555081600019163373ffffffffffffffffffffffffffffffffffffffff16827f93c1b18749e6d6d3bcfdfbf098f3acb2b13122b367d45915d5c0706883c15bd760405160405180910390a45050565b60008080549050905090565b8154818355818115116103de576002028160020283600052602060002091820191016103dd91906103e3565b5b505050565b61042e91905b8082111561042a57600080820160006101000a81549073ffffffffffffffffffffffffffffffffffffffff02191690556001820160009055506002016103e9565b5090565b905600a165627a7a72305820aefeb00e81907d282288780b53eeaf21353c98e086959750dbf920bf4d1dbea10029",
  "source": "pragma solidity ^0.4.2;\n\ncontract Messages {\n\n  struct Message {\n    // uint id;\n    address sender;\n    bytes32 ipfsHash;\n  }\n\n  event MessageCreated(\n    uint indexed id,\n    address indexed sender,\n    bytes32 indexed ipfsHash\n  );\n  \n  event MessageUpdated(\n    uint indexed id,\n    address indexed sender,\n    bytes32 indexed ipfsHash\n  );\n\n  Message[] public messages;\n\n  function Messages() public { }\n\n  function messagesLength() public view returns (uint) {\n    return messages.length;\n  }\n\n  function createMessage(bytes32 ipfsHash) public {\n    messages.length++;\n    uint index = messages.length - 1;\n\n    messages[index].ipfsHash = ipfsHash;\n    messages[index].sender = msg.sender;\n\n    MessageCreated(index, msg.sender, ipfsHash);\n  }\n\n  function updateMessage(uint id, bytes32 ipfsHash) public {\n    require(messages.length > id);\n    require(messages[id].sender == msg.sender);\n    \n    messages[id].ipfsHash = ipfsHash;\n\n    MessageUpdated(id, msg.sender, ipfsHash);\n  }\n\n}",
  "sourcePath": "/Users/hank/ethereum/numa/contracts/Messages.sol",
  "compiler": {
    "name": "solc",
    "version": "0.4.18+commit.9cf6e910.Emscripten.clang"
  },
  "schemaVersion": "1.0.1",
  "updatedAt": "2018-03-20T18:17:46.191Z"
}