{
  "contractName": "Numa",
  "abi": [
    {
      "constant": true,
      "inputs": [
        {
          "name": "",
          "type": "uint256"
        }
      ],
      "name": "messages",
      "outputs": [
        {
          "name": "sender",
          "type": "address"
        },
        {
          "name": "ipfsHash",
          "type": "bytes32"
        }
      ],
      "payable": false,
      "stateMutability": "view",
      "type": "function"
    },
    {
      "constant": true,
      "inputs": [
        {
          "name": "",
          "type": "address"
        }
      ],
      "name": "users",
      "outputs": [
        {
          "name": "",
          "type": "bytes32"
        }
      ],
      "payable": false,
      "stateMutability": "view",
      "type": "function"
    },
    {
      "inputs": [],
      "payable": false,
      "stateMutability": "nonpayable",
      "type": "constructor"
    },
    {
      "anonymous": false,
      "inputs": [
        {
          "indexed": true,
          "name": "sender",
          "type": "address"
        },
        {
          "indexed": true,
          "name": "ipfsHash",
          "type": "bytes32"
        }
      ],
      "name": "UserUpdated",
      "type": "event"
    },
    {
      "anonymous": false,
      "inputs": [
        {
          "indexed": true,
          "name": "id",
          "type": "uint256"
        },
        {
          "indexed": true,
          "name": "sender",
          "type": "address"
        },
        {
          "indexed": true,
          "name": "ipfsHash",
          "type": "bytes32"
        }
      ],
      "name": "MessageCreated",
      "type": "event"
    },
    {
      "anonymous": false,
      "inputs": [
        {
          "indexed": true,
          "name": "id",
          "type": "uint256"
        },
        {
          "indexed": true,
          "name": "sender",
          "type": "address"
        },
        {
          "indexed": true,
          "name": "ipfsHash",
          "type": "bytes32"
        }
      ],
      "name": "MessageUpdated",
      "type": "event"
    },
    {
      "constant": true,
      "inputs": [],
      "name": "messagesLength",
      "outputs": [
        {
          "name": "",
          "type": "uint256"
        }
      ],
      "payable": false,
      "stateMutability": "view",
      "type": "function"
    },
    {
      "constant": false,
      "inputs": [
        {
          "name": "ipfsHash",
          "type": "bytes32"
        }
      ],
      "name": "createMessage",
      "outputs": [],
      "payable": false,
      "stateMutability": "nonpayable",
      "type": "function"
    },
    {
      "constant": false,
      "inputs": [
        {
          "name": "id",
          "type": "uint256"
        },
        {
          "name": "ipfsHash",
          "type": "bytes32"
        }
      ],
      "name": "updateMessage",
      "outputs": [],
      "payable": false,
      "stateMutability": "nonpayable",
      "type": "function"
    },
    {
      "constant": false,
      "inputs": [
        {
          "name": "ipfsHash",
          "type": "bytes32"
        }
      ],
      "name": "updateUser",
      "outputs": [],
      "payable": false,
      "stateMutability": "nonpayable",
      "type": "function"
    }
  ],
  "bytecode": "0x6060604052341561000f57600080fd5b61059a8061001e6000396000f300606060405260043610610078576000357c0100000000000000000000000000000000000000000000000000000000900463ffffffff1680630d80fefd1461007d578063491fd263146100ef57806375a73ed31461011f5780637faff87614610146578063a87430ba1461016d578063e11dba54146101c2575b600080fd5b341561008857600080fd5b61009e60048080359060200190919050506101eb565b604051808373ffffffffffffffffffffffffffffffffffffffff1673ffffffffffffffffffffffffffffffffffffffff16815260200182600019166000191681526020019250505060405180910390f35b34156100fa57600080fd5b61011d60048080359060200190919080356000191690602001909190505061023e565b005b341561012a57600080fd5b610144600480803560001916906020019091905050610341565b005b341561015157600080fd5b61016b600480803560001916906020019091905050610437565b005b341561017857600080fd5b6101a4600480803573ffffffffffffffffffffffffffffffffffffffff169060200190919050506104c9565b60405180826000191660001916815260200191505060405180910390f35b34156101cd57600080fd5b6101d56104e1565b6040518082815260200191505060405180910390f35b6001818154811015156101fa57fe5b90600052602060002090600202016000915090508060000160009054906101000a900473ffffffffffffffffffffffffffffffffffffffff16908060010154905082565b8160018054905011151561025157600080fd5b3373ffffffffffffffffffffffffffffffffffffffff1660018381548110151561027757fe5b906000526020600020906002020160000160009054906101000a900473ffffffffffffffffffffffffffffffffffffffff1673ffffffffffffffffffffffffffffffffffffffff161415156102cb57600080fd5b806001838154811015156102db57fe5b9060005260206000209060020201600101816000191690555080600019163373ffffffffffffffffffffffffffffffffffffffff16837fabe9248821ddaf4dca61083cf0ce0fbe633cb4badf679f3e63e7d841fbb437cd60405160405180910390a45050565b60006001805480919060010161035791906104ee565b50600180805490500390508160018281548110151561037257fe5b906000526020600020906002020160010181600019169055503360018281548110151561039b57fe5b906000526020600020906002020160000160006101000a81548173ffffffffffffffffffffffffffffffffffffffff021916908373ffffffffffffffffffffffffffffffffffffffff16021790555081600019163373ffffffffffffffffffffffffffffffffffffffff16827f93c1b18749e6d6d3bcfdfbf098f3acb2b13122b367d45915d5c0706883c15bd760405160405180910390a45050565b806000803373ffffffffffffffffffffffffffffffffffffffff1673ffffffffffffffffffffffffffffffffffffffff168152602001908152602001600020816000191690555080600019163373ffffffffffffffffffffffffffffffffffffffff167f6c46eb453c5219d7665e4dda98f6200b9c6978d989806dfc2d2b17dc03609c5360405160405180910390a350565b60006020528060005260406000206000915090505481565b6000600180549050905090565b81548183558181151161051b5760020281600202836000526020600020918201910161051a9190610520565b5b505050565b61056b91905b8082111561056757600080820160006101000a81549073ffffffffffffffffffffffffffffffffffffffff0219169055600182016000905550600201610526565b5090565b905600a165627a7a72305820846cdef0ee9b5b3f70f2588c7a1d20fb9671ef4a77571dabbf504eb352377ff40029",
  "source": "pragma solidity ^0.4.2;\n\ncontract Numa {\n    mapping(address => bytes32) public users;\n    Message[] public messages;\n\n    struct Message {\n        address sender;\n        bytes32 ipfsHash;\n    }\n\n    event UserUpdated(\n        address indexed sender,\n        bytes32 indexed ipfsHash\n    );\n\n    event MessageCreated(\n        uint indexed id,\n        address indexed sender,\n        bytes32 indexed ipfsHash\n    );\n    \n    event MessageUpdated(\n        uint indexed id,\n        address indexed sender,\n        bytes32 indexed ipfsHash\n    );\n\n    function Numa() public { }\n\n    function messagesLength() public view returns (uint) {\n        return messages.length;\n    }\n\n    function createMessage(bytes32 ipfsHash) public {\n        messages.length++;\n        uint index = messages.length - 1;\n\n        messages[index].ipfsHash = ipfsHash;\n        messages[index].sender = msg.sender;\n\n        MessageCreated(index, msg.sender, ipfsHash);\n    }\n\n    function updateMessage(uint id, bytes32 ipfsHash) public {\n        require(messages.length > id);\n        require(messages[id].sender == msg.sender);\n        \n        messages[id].ipfsHash = ipfsHash;\n\n        MessageUpdated(id, msg.sender, ipfsHash);\n    }\n\n    function updateUser(bytes32 ipfsHash) public {\n        users[msg.sender] = ipfsHash;\n        UserUpdated(msg.sender, ipfsHash);\n    }\n\n}",
  "sourcePath": "/Users/hank/ethereum/numa/contracts/Numa.sol",
  "compiler": {
    "name": "solc",
    "version": "0.4.19+commit.c4cbbb05.Emscripten.clang"
  },
  "schemaVersion": "2.0.0",
  "updatedAt": "2018-03-29T13:51:53.875Z"
}