{
  "contractName": "Numa",
  "abi": [
    {
      "inputs": [],
      "payable": false,
      "stateMutability": "nonpayable",
      "type": "constructor"
    },
    {
      "anonymous": false,
      "inputs": [
        {
          "indexed": true,
          "name": "ipfsHash",
          "type": "bytes32"
        }
      ],
      "name": "NewBatch",
      "type": "event"
    },
    {
      "constant": false,
      "inputs": [
        {
          "name": "ipfsHash",
          "type": "bytes32"
        }
      ],
      "name": "newBatch",
      "outputs": [],
      "payable": false,
      "stateMutability": "nonpayable",
      "type": "function"
    }
  ],
  "bytecode": "0x60606040523415600e57600080fd5b60c88061001c6000396000f300606060405260043610603f576000357c0100000000000000000000000000000000000000000000000000000000900463ffffffff16806358c3c193146044575b600080fd5b3415604e57600080fd5b60666004808035600019169060200190919050506068565b005b80600019167f2e325f4af2483b318238291c6cda1df052b2f3cb323549ccbebae9c03d367d9560405160405180910390a2505600a165627a7a72305820cdcbdf54493be624a3763cd3c3540268e0f524fdf25173d6a87ebdea51d7740b0029",
  "source": "pragma solidity ^0.4.2;\n\ncontract Numa {\n\n    event NewBatch(\n        bytes32 indexed ipfsHash\n    );\n\n    function Numa() public { }\n    \n    function newBatch(bytes32 ipfsHash) public {\n        NewBatch(ipfsHash);\n    }\n}",
  "sourcePath": "/Users/hank/ethereum/numa/contracts/Numa.sol",
  "compiler": {
    "name": "solc",
    "version": "0.4.19+commit.c4cbbb05.Emscripten.clang"
  },
  "schemaVersion": "2.0.0",
  "updatedAt": "2018-03-31T22:28:02.330Z"
}