{
  "contractName": "Numa",
  "abi": [
    {
      "constant": true,
      "inputs": [
        {
          "name": "",
          "type": "uint256"
        }
      ],
      "name": "messages",
      "outputs": [
        {
          "name": "id",
          "type": "uint256"
        },
        {
          "name": "sender",
          "type": "address"
        },
        {
          "name": "datFolderId",
          "type": "bytes32"
        },
        {
          "name": "datFileId",
          "type": "bytes32"
        }
      ],
      "payable": false,
      "stateMutability": "view",
      "type": "function"
    },
    {
      "constant": false,
      "inputs": [
        {
          "name": "datFolderId",
          "type": "bytes32"
        },
        {
          "name": "datFileId",
          "type": "bytes32"
        }
      ],
      "name": "createMessage",
      "outputs": [
        {
          "name": "",
          "type": "uint256"
        }
      ],
      "payable": true,
      "stateMutability": "payable",
      "type": "function"
    },
    {
      "constant": true,
      "inputs": [],
      "name": "owner",
      "outputs": [
        {
          "name": "",
          "type": "address"
        }
      ],
      "payable": false,
      "stateMutability": "view",
      "type": "function"
    },
    {
      "constant": false,
      "inputs": [
        {
          "name": "newPrice",
          "type": "uint256"
        }
      ],
      "name": "setPrice",
      "outputs": [],
      "payable": false,
      "stateMutability": "nonpayable",
      "type": "function"
    },
    {
      "constant": true,
      "inputs": [],
      "name": "price",
      "outputs": [
        {
          "name": "",
          "type": "uint256"
        }
      ],
      "payable": false,
      "stateMutability": "view",
      "type": "function"
    },
    {
      "constant": true,
      "inputs": [],
      "name": "messagesLength",
      "outputs": [
        {
          "name": "",
          "type": "uint256"
        }
      ],
      "payable": false,
      "stateMutability": "view",
      "type": "function"
    },
    {
      "inputs": [
        {
          "name": "_owner",
          "type": "address"
        }
      ],
      "payable": false,
      "stateMutability": "nonpayable",
      "type": "constructor"
    },
    {
      "anonymous": false,
      "inputs": [
        {
          "indexed": false,
          "name": "id",
          "type": "uint256"
        },
        {
          "indexed": false,
          "name": "sender",
          "type": "address"
        },
        {
          "indexed": false,
          "name": "datFolderId",
          "type": "bytes32"
        },
        {
          "indexed": false,
          "name": "datFileId",
          "type": "bytes32"
        }
      ],
      "name": "MessageCreated",
      "type": "event"
    }
  ],
  "bytecode": "0x6060604052341561000f57600080fd5b60405160208061060083398101604052808051906020019091905050806000806101000a81548173ffffffffffffffffffffffffffffffffffffffff021916908373ffffffffffffffffffffffffffffffffffffffff160217905550506105858061007b6000396000f300606060405260043610610078576000357c0100000000000000000000000000000000000000000000000000000000900463ffffffff1680630d80fefd1461007d5780633ba5040d146101055780638da5cb5b1461014257806391b7f5ed14610197578063a035b1fe146101ba578063e11dba54146101e3575b600080fd5b341561008857600080fd5b61009e600480803590602001909190505061020c565b604051808581526020018473ffffffffffffffffffffffffffffffffffffffff1673ffffffffffffffffffffffffffffffffffffffff1681526020018360001916600019168152602001826000191660001916815260200194505050505060405180910390f35b61012c6004808035600019169060200190919080356000191690602001909190505061026b565b6040518082815260200191505060405180910390f35b341561014d57600080fd5b61015561042c565b604051808273ffffffffffffffffffffffffffffffffffffffff1673ffffffffffffffffffffffffffffffffffffffff16815260200191505060405180910390f35b34156101a257600080fd5b6101b86004808035906020019091905050610451565b005b34156101c557600080fd5b6101cd6104b6565b6040518082815260200191505060405180910390f35b34156101ee57600080fd5b6101f66104bc565b6040518082815260200191505060405180910390f35b60028181548110151561021b57fe5b90600052602060002090600402016000915090508060000154908060010160009054906101000a900473ffffffffffffffffffffffffffffffffffffffff16908060020154908060030154905084565b600080600154341015151561027f57600080fd5b6002805480919060010161029391906104c9565b506001600280549050039050836002828154811015156102af57fe5b90600052602060002090600402016002018160001916905550826002828154811015156102d857fe5b906000526020600020906004020160030181600019169055503360028281548110151561030157fe5b906000526020600020906004020160010160006101000a81548173ffffffffffffffffffffffffffffffffffffffff021916908373ffffffffffffffffffffffffffffffffffffffff16021790555060028054905060028281548110151561036557fe5b9060005260206000209060040201600001819055507f35efd2687e686e9a25322f26220ab5a3fb422e671aa171b1f1bf79d18ca90bd26002828154811015156103aa57fe5b906000526020600020906004020160000154338686604051808581526020018473ffffffffffffffffffffffffffffffffffffffff1673ffffffffffffffffffffffffffffffffffffffff1681526020018360001916600019168152602001826000191660001916815260200194505050505060405180910390a15092915050565b6000809054906101000a900473ffffffffffffffffffffffffffffffffffffffff1681565b6000809054906101000a900473ffffffffffffffffffffffffffffffffffffffff1673ffffffffffffffffffffffffffffffffffffffff163373ffffffffffffffffffffffffffffffffffffffff161415156104ac57600080fd5b8060018190555050565b60015481565b6000600280549050905090565b8154818355818115116104f6576004028160040283600052602060002091820191016104f591906104fb565b5b505050565b61055691905b80821115610552576000808201600090556001820160006101000a81549073ffffffffffffffffffffffffffffffffffffffff02191690556002820160009055600382016000905550600401610501565b5090565b905600a165627a7a723058202fe633fd3f84975f60c6de15413e7a1c42b7c222de0c138c932c45d606d00ffc0029",
  "source": "pragma solidity ^0.4.2;\n\ncontract Numa {\n  address public owner;\n  uint public price;\n\n  struct Message {\n    uint id;\n    address sender;\n    bytes32 datFolderId;\n    bytes32 datFileId;\n  }\n\n  event MessageCreated(\n    uint id,\n    address sender,\n    bytes32 datFolderId,\n    bytes32 datFileId\n  );\n\n  Message[] public messages;\n\n  function Numa(address _owner) public {\n    owner = _owner;\n  }\n\n  modifier onlyOwner {\n    require(msg.sender == owner);\n    _;\n  }\n\n  function setPrice(uint newPrice) public onlyOwner {\n    price = newPrice;\n  }\n\n  function messagesLength() public view returns (uint) {\n    return messages.length;\n  }\n\n  function createMessage(bytes32 datFolderId, bytes32 datFileId) public payable returns (uint) {\n    require(msg.value >= price);\n    messages.length++;\n    uint index = messages.length - 1;\n\n    messages[index].datFolderId = datFolderId;\n    messages[index].datFileId = datFileId;\n    messages[index].sender = msg.sender;\n    messages[index].id = messages.length;\n\n    MessageCreated(messages[index].id, msg.sender, datFolderId, datFileId);\n  }\n\n}",
  "sourcePath": "/Users/hank/ethereum/numa/contracts/Numa.sol",
  "compiler": {
    "name": "solc",
    "version": "0.4.18+commit.9cf6e910.Emscripten.clang"
  },
  "schemaVersion": "1.0.1",
  "updatedAt": "2018-02-17T18:09:32.414Z"
}