{
  "contractName": "Users",
  "abi": [
    {
      "constant": false,
      "inputs": [
        {
          "name": "ipfsHash",
          "type": "bytes32"
        }
      ],
      "name": "update",
      "outputs": [],
      "payable": false,
      "stateMutability": "nonpayable",
      "type": "function"
    },
    {
      "constant": true,
      "inputs": [
        {
          "name": "",
          "type": "address"
        }
      ],
      "name": "users",
      "outputs": [
        {
          "name": "",
          "type": "bytes32"
        }
      ],
      "payable": false,
      "stateMutability": "view",
      "type": "function"
    },
    {
      "anonymous": false,
      "inputs": [
        {
          "indexed": true,
          "name": "sender",
          "type": "address"
        },
        {
          "indexed": true,
          "name": "ipfsHash",
          "type": "bytes32"
        }
      ],
      "name": "UserUpdated",
      "type": "event"
    }
  ],
  "bytecode": "0x6060604052341561000f57600080fd5b6101a38061001e6000396000f30060606040526004361061004c576000357c0100000000000000000000000000000000000000000000000000000000900463ffffffff1680638b14724514610051578063a87430ba14610078575b600080fd5b341561005c57600080fd5b6100766004808035600019169060200190919050506100cd565b005b341561008357600080fd5b6100af600480803573ffffffffffffffffffffffffffffffffffffffff1690602001909190505061015f565b60405180826000191660001916815260200191505060405180910390f35b806000803373ffffffffffffffffffffffffffffffffffffffff1673ffffffffffffffffffffffffffffffffffffffff168152602001908152602001600020816000191690555080600019163373ffffffffffffffffffffffffffffffffffffffff167f6c46eb453c5219d7665e4dda98f6200b9c6978d989806dfc2d2b17dc03609c5360405160405180910390a350565b600060205280600052604060002060009150905054815600a165627a7a72305820ed5cc12d121db2948645660276d9a979b7187e49efa4b3fd972c90846a4b0ce20029",
  "source": "pragma solidity ^0.4.2;\n\ncontract Users {\n  mapping(address => bytes32) public users;\n\n  function update(bytes32 ipfsHash) public {\n    users[msg.sender] = ipfsHash;\n    UserUpdated(msg.sender, ipfsHash);\n  }\n\n  event UserUpdated(\n    address indexed sender,\n    bytes32 indexed ipfsHash\n  );\n\n}",
  "sourcePath": "/Users/hank/ethereum/numa/contracts/Users.sol",
  "compiler": {
    "name": "solc",
    "version": "0.4.18+commit.9cf6e910.Emscripten.clang"
  },
  "schemaVersion": "1.0.1",
  "updatedAt": "2018-03-20T18:17:46.194Z"
}